:100000000C942A000C943C000C943C000C943C0092
:100010000C948D030C9464030C943C000C943B03EF
:100020000C943C000C9431030C9408030C94DF02F4
:100030000C943C000C943C000C943C000C943C0050
:100040000C943C000C943C000C943C000C943C0040
:100050000C943C0011241FBECFE5D8E0DEBFCDBF1D
:1000600010E0A0E6B0E001C01D92AA36B107E1F7AA
:100070000E943E000C94EC040C940000CF93DF939C
:100080000E946900C8ECD0E00E946B0088E893E110
:10009000FE013197F1F70197D9F70E94760088E8C1
:1000A00093E1FE013197F1F70197D9F70E946D00B6
:1000B00088E893E1FE013197F1F70197D9F70E94A3
:1000C0006F0088E893E1FE013197F1F70197D9F7C6
:1000D000DBCFD09A0895D89A0895D898089588E0EB
:1000E00090E060E070E00E94B000089588E090E049
:1000F00061E070E00E94B000089586B1836886B91F
:1001000017B8089597B18F71892B87B9369A349BA8
:10011000FECF349A24B135B1C9010895482F50E07B
:1001200021E01AC030E0842F90E087709070BC010D
:10013000629FC001639F900D729F900D1124580F14
:10014000C90163E0880F991F6A95E1F7220F331FF9
:10015000280F469546954695442321F7852F089507
:10016000CF93DF93EB010E948E00382F6AE00E944C
:10017000BE048130A9F1813040F0823009F45BC0C7
:10018000833009F483C081E0ABC0209729F0C130EF
:10019000D10509F0A4C013C02AB3832F6AE00E94DE
:1001A000BE0441E050E002C0440F551F9A95E2F7AB
:1001B000242B2ABB8BB3409548234BBB90C02AB35A
:1001C000832F6AE00E94BE0402C0CC0FDD1F9A9507
:1001D000E2F78C2F2C2B2ABB9BB3892B8BBB7FC0C8
:1001E000209729F0C130D10509F079C013C027B399
:1001F000832F6AE00E94BE0441E050E002C0440F39
:10020000551F9A95E2F7242B27BB88B340954823C6
:1002100048BB65C027B3832F6AE00E94BE0402C0BA
:10022000CC0FDD1F9A95E2F78C2F2C2B27BB98B3B0
:10023000892B88BB54C0209729F0C130D10509F023
:100240004EC013C024B3832F6AE00E94BE0441E075
:1002500050E002C0440F551F9A95E2F7242B24BBAF
:1002600085B34095482345BB3AC024B3832F6AE049
:100270000E94BE0402C0CC0FDD1F9A95E2F78C2FBE
:100280002C2B24BB95B3892B85BB29C0209721F04B
:10029000C130D10521F513C021B3832F6AE00E943C
:1002A000BE0441E050E002C0440F551F9A95E2F7AA
:1002B000242B21BB82B34095482342BB10C021B3FD
:1002C000832F6AE00E94BE0402C0CC0FDD1F9A9506
:1002D000E2F78C2F2C2B21BB92B3892B82BB80E0C1
:1002E000DF91CF9108950E948E00282F6AE00E942E
:1002F000BE048130D9F0813038F0823049F183304A
:1003000009F440C083E008954AB3822F6AE00E9456
:10031000BE0421E030E0092E02C0220F331F0A94F0
:10032000E2F7209524232ABB29B323C047B3822FA9
:100330006AE00E94BE0421E030E0092E02C0220FD4
:10034000331F0A94E2F72095242327BB26B311C05C
:1003500044B3822F6AE00E94BE0421E030E0092EFF
:1003600002C0220F331F0A94E2F72095242324BBF6
:1003700023B330E002C0359527959A95E2F7822F96
:100380008170089541B3822F6AE00E94BE0421E08B
:1003900030E0092E02C0220F331F0A94E2F72095A5
:1003A000242321BB20B330E002C0359527959A95D0
:1003B000E2F7822F81700895EF92FF920F931F93BF
:1003C0008C017B010E943102C801880F892F881F90
:1003D000990B9195182F1E70812F806A0E94370209
:1003E000802F0E9437020E943102812F816A0E9471
:1003F000370280E090E00E943E02F70180830E9475
:100400004F021F910F91FF90EF900895FF920F936D
:100410001F938C01F62E0E943102C80180709770E4
:10042000880F892F881F990B9195806A0E94370247
:10043000802F0E9437028F2D0E9437020E944F02A8
:100440001F910F91FF900895FC01828180B98081F6
:1004500081B9838182B984E086BF85B3836085BB1F
:10046000089584EA86BF06B607FEFDCF089583B9D6
:1004700084E886BF06B607FEFDCF0895009719F001
:10048000019729F402C084E801C084EC86BF06B657
:1004900007FEFDCF83B1089581B1887F089584E977
:1004A00086BF0895FC0184EA86BF06B607FEFDCF2D
:1004B00081B1887F883009F04DC070E0660F771FEA
:1004C0004115510539F04130510529F4862F8160DD
:1004D00083B901C063B984E886BF06B607FEFDCFC5
:1004E0004115510541F04130510551F481B1887FEA
:1004F000803481F50BC081B1887F883159F509C0FE
:100500004115510531F04130510529F483B1808303
:1005100002C0808183B984E886BF06B607FEFDCF9E
:100520004115510541F04130510581F481B1887F79
:10053000803581F405C081B1887F883259F406C0C6
:1005400084E886BF81B1887F883521F484E986BF3D
:1005500080E0089581E0089587B3806B87BB8DB1FB
:1005600080658DB90895BE9A6E9A08958FB9779B6C
:10057000FECF0895779BFECF8FB10895FC0104C094
:100580008FB9779BFECF319680818823C9F7089574
:10059000DC01779BFECF8FB18C9390E008C09F5F0A
:1005A000779BFECF8FB1FD01E90FF11D8083FD0127
:1005B000E90FF11D8081833291F7108208951F9217
:1005C0000F920FB60F9211242F933F934F935F9387
:1005D0006F937F938F939F93AF93BF93EF93FF930B
:1005E000E0916800F0916900309709F00995FF915A
:1005F000EF91BF91AF919F918F917F916F915F919B
:100600004F913F912F910F900FBE0F901F90189513
:100610001F920F920FB60F9211242F933F934F9377
:100620005F936F937F938F939F93AF93BF93EF935A
:10063000FF93E0916600F0916700309709F009950B
:10064000FF91EF91BF91AF919F918F917F916F91AA
:100650005F914F913F912F910F900FBE0F901F9080
:1006600018951F920F920FB60F9211240F900FBE84
:100670000F901F9018951F920F920FB60F92112492
:100680002F933F934F935F936F937F938F939F939A
:10069000AF93BF93EF93FF93E0916400F0916500F7
:1006A000309709F00995FF91EF91BF91AF919F911C
:1006B0008F917F916F915F914F913F912F910F900B
:1006C0000FBE0F901F9018951F920F920FB60F92AA
:1006D00011242F933F934F935F936F937F938F9347
:1006E0009F93AF93BF93EF93FF93E0916200F091DC
:1006F0006300309709F00995FF91EF91BF91AF9199
:100700009F918F917F916F915F914F913F912F9129
:100710000F900FBE0F901F9018951F920F920FB65B
:100720000F9211242F933F934F935F936F937F9377
:100730008F939F93AF93BF93EF93FF93E0916000EC
:10074000F0916100309709F00995FF91EF91BF9109
:10075000AF919F918F917F916F915F914F913F9159
:100760002F910F900FBE0F901F901895FC01808164
:1007700091818130910539F18130910528F00297FE
:1007800009F441C085E0089580E883BF83B7887F7E
:100790009481892B83BF808582BF8281938100975A
:1007A00021F0019709F04FC006C083B7886483BF6A
:1007B00089B7816045C083B7886083BF86818CBF5D
:1007C00089B782603DC088E08FBD1EBC8EB5887F32
:1007D0009481892B8EBD808591859DBD8CBD828144
:1007E0009381009719F0019771F503C089B7846070
:1007F00027C08EB588608EBD868197819BBD8ABDDE
:1008000089B780611DC080E885BD85B5887F9481EA
:10081000892B85BD808584BD82819381009719F0E5
:10082000019789F406C085B5886485BD89B7806461
:1008300007C085B5886085BD868183BD89B780681E
:1008400089BF80E008958FE00895909369008093B8
:1008500068000895909367008093660008959093D0
:100860006500809364000895909365008093640010
:1008700008959093630080936200089590936100BF
:100880008093600008958130910551F08130910589
:1008900018F0029761F408C083B7887F83BF08957A
:1008A0008EB5887F8EBD089585B5887F85BD0895F6
:1008B0008130910541F08130910518F0029739F4AB
:1008C00005C012BE08951DBC1CBC089514BC08953B
:1008D0008130910559F08130910518F0029779F433
:1008E0000AC083B7887F862B83BF08958EB5887F23
:1008F000862B8EBD089585B5887F862B85BD08958E
:100900000F931F938C01FC0126813781408551850F
:1009100060E072E18AE790E00E94CA042150304012
:10092000599A549A539A80B5806880BD80B58F7B60
:1009300080BD10BC90B5F80180818295807F9F7C3E
:10094000892B80BD529890B58481880F997F892B1F
:1009500080BD90B58281880F880F880F977F892B83
:1009600080BD30BD29B91F910F9108955D9BFECFC9
:100970008CB908955F9BFECF8CB10895991B79E0E7
:1009800004C0991F961708F0961B881F7A95C9F71F
:1009900080950895A1E21A2EAA1BBB1BFD010DC074
:1009A000AA1FBB1FEE1FFF1FA217B307E407F5071F
:1009B00020F0A21BB30BE40BF50B661F771F881FFB
:1009C000991F1A9469F760957095809590959B0191
:0C09D000AC01BD01CF010895F894FFCFE9
:00000001FF
